:100000000C9434000C9451000C9451000C94510049
:100010000C9451000C9451000C9451000C9451001C
:100020000C9451000C9451000C9451000C9451000C
:100030000C9451000C9451000C9451000C945100FC
:100040000C9451000C9451000C9451000C945100EC
:100050000C9451000C9451000C9451000C945100DC
:100060000C9451000C94510011241FBECFEFD4E02A
:10007000DEBFCDBF11E0A0E0B1E0E4E2F4E002C0F9
:1000800005900D92AE31B107D9F721E0AEE1B1E0B4
:1000900001C01D92AE31B207E1F70E94AB010C9492
:1000A00010020C9400005F9A00005F980895CF93AF
:1000B000DF931F92CDB7DEB7662311F05D9A01C0C2
:1000C0005D985E983B9A3A9A399A389A4098419846
:1000D0004298439887FD409A86FD419A85FD429A51
:1000E00084FD439A89830E94530040984198429826
:1000F0004398898183FD409A82FD419A81FD429A0D
:1001000080FD439A0E945300439A429A419A409A32
:100110000F90DF91CF9108955D985E9A3B983A9841
:10012000399838985F9A0000339902C080E001C086
:1001300080E13299806231998064309980685F985B
:1001400000005F9A00003399816032998260319992
:100150008460309988605F9808950E948C0087FDC4
:10016000FCCF00C000C00C948C00CF93C82F0E941D
:10017000AD0060E08C2FCF910C945700611102C04C
:10018000805801C080540C94B50081E00C94B500F7
:10019000CF93C82F0E94AD00CA3049F4803410F4C8
:1001A00080E401C080E08058CF910C94B50061E0FC
:1001B0008C2FCF910C945700CF93DF93EC01899152
:1001C000882319F00E94C800FACFDF91CF910895DB
:1001D000CF93C82F559A569A579A3B9A3A9A399A7A
:1001E000389A8FE99FE00197F1F700C00000429A2A
:1001F000439A0E94530081EE94E00197F1F700C00A
:1002000000000E94530095E19A95F1F700000E94CA
:10021000530085E18A95F1F7000043980E9453004E
:1002200095E19A95F1F7000088E20E94B50088E018
:100230000E94B5000E94C50086E00E94B5008C2F88
:10024000CF910C94B500DF92EF92FF920F931F9322
:10025000CF93DF937C01D12C062F10E001501109C0
:10026000CD2DD0E0C017D10724F40E9409028D30B3
:1002700059F4CE0DDF1D1882DF91CF911F910F91A0
:10028000FF90EF90DF900895CE0DDF1D8883D3940B
:10029000E7CFFC01419121E030E080E090E0AAE06E
:1002A00050E040535109429FB001439F700D529F4F
:1002B000700D1124860F971FA901A49F9001A59F7F
:1002C000300D112441914111EBCF08958A359105EC
:1002D0001CF42B9A2C9808952B982C9A08950F9320
:1002E0001F93CF93DF93EC018B010E94C50060E068
:1002F00080E00E94BE0080E091E00E94DC0060E0AF
:100300008BE00E94BE00CE010E94DC0061E080E034
:100310000E94BE008DE091E00E94DC0061E08CE074
:100320000E94BE00C8010E94DC0061E08FE00E94D4
:10033000BE008BE191E00E94DC002FE38DE093E0B2
:10034000215080409040E1F700C00000DF91CF9144
:100350001F910F910895CF93DF93CDB7DEB72A9702
:100360000FB6F894DEBF0FBECDBF0E94F1018CE046
:100370000E94E80084B18F6184B915B8289A2A9840
:10038000299A05E510E08091C00087FF26C02A9ACF
:1003900029988FE493EC0197F1F700C0000063E027
:1003A000CE0106960E94230189E70E94020263E0C3
:1003B000CE0101960E94230189E70E940202CE012C
:1003C00001960E9449018C01BE016F5F7F4FCE01F3
:1003D00006960E946F012A98299AC8010E94660118
:1003E000D2CF1092C5008CE08093C400E0ECF0E026
:1003F00080818260808388E18093C10086E0809361
:10040000C20008959091C00095FFFCCF8093C60074
:1004100008958091C00087FFFCCF8091C6000895A9
:04042000F894FFCF7E
:1004240057696E642073706565643A200054656D85
:0E04340070657261747572653A2000460000B2
:00000001FF
