:100000000C9434000C943E000C943E000C943E0082
:100010000C943E000C943E000C943E000C943E0068
:100020000C943E000C943E000C943E000C943E0058
:100030000C943E000C943E000C943E000C943E0048
:100040000C943E000C943E000C943E000C943E0038
:100050000C943E000C943E000C943E000C943E0028
:100060000C943E000C943E0011241FBECFEFD4E050
:10007000DEBFCDBF0E946C000C94EF000C9400001A
:10008000009741F0E9EFF0E03197F1F700C0000090
:100090000197F6CF08950F931F93CF93DF93C4EF8B
:1000A000D1E09C012C9FC0012D9F900D3C9F900D95
:1000B000112466E970E00E94DB008B01289ACB01D5
:1000C0000E9440002898CE01801B910BDF91CF91B8
:1000D0001F910F910C9440000E94830084B18760AF
:1000E00084B915B8289A29982A9AC3E0D0E080915B
:1000F000C00087FF04C00E94A200C82FD0E0CE013C
:100100000E944B00F4CF1092C5008CE08093C40095
:10011000E0ECF0E080818260808388E18093C10020
:1001200086E08093C20008959091C00095FFFCCFB7
:100130008093C60008958091C00087FFFCCF809116
:10014000C60008950F931F93CF93DF93D0E3C0E3CE
:1001500000E30E949B00182F0E9494001D3021F0A4
:100160000C2FCD2FD12FF5CFD053005384E6089F0D
:10017000D00D11249C2F990F9056892F880F880F2E
:10018000890F8D0FDF91CF911F910F910895AA1BB9
:10019000BB1B51E107C0AA1FBB1FA617B70710F072
:1001A000A61BB70B881F991F5A95A9F780959095A4
:1001B000BC01CD01089597FB072E16F4009407D0DB
:1001C00077FD09D00E94C70007FC05D03EF490954A
:1001D00081959F4F0895709561957F4F0895F8948C
:0201E000FFCF4F
:00000001FF
