:100000000C9434000C9451000C9451000C94510049
:100010000C9451000C9451000C9451000C9451001C
:100020000C9451000C9451000C9451000C9451000C
:100030000C9451000C9451000C9451000C945100FC
:100040000C9451000C9451000C9451000C945100EC
:100050000C9451000C9451000C9451000C945100DC
:100060000C9451000C94510011241FBECFEFD4E02A
:10007000DEBFCDBF11E0A0E0B1E0ECEEF4E002C0E5
:1000800005900D92AE31B107D9F721E0AEE1B1E0B4
:1000900001C01D92AE31B207E1F70E94D9010C9464
:1000A00074020C9400005F9A00005F980895CF934B
:1000B000DF931F92CDB7DEB7662311F05D9A01C0C2
:1000C0005D985E983B9A3A9A399A389A4098419846
:1000D0004298439887FD409A86FD419A85FD429A51
:1000E00084FD439A89830E94530040984198429826
:1000F0004398898183FD409A82FD419A81FD429A0D
:1001000080FD439A0E945300439A429A419A409A32
:100110000F90DF91CF9108955D985E9A3B983A9841
:10012000399838985F9A0000339902C080E001C086
:1001300080E13299806231998064309980685F985B
:1001400000005F9A00003399816032998260319992
:100150008460309988605F9808950E948C0087FDC4
:10016000FCCF00C000C00C948C00CF93C82F0E941D
:10017000AD0060E08C2FCF910C945700611102C04C
:10018000805801C080540C94B50081E00C94B500F7
:10019000CF93C82F0E94AD00CA3049F4803410F4C8
:1001A00080E401C080E08058CF910C94B50061E0FC
:1001B0008C2FCF910C945700CF93DF93EC01899152
:1001C000882319F00E94C800FACFDF91CF910895DB
:1001D000CF93C82F559A569A579A3B9A3A9A399A7A
:1001E000389A8FE99FE00197F1F700C00000429A2A
:1001F000439A0E94530081EE94E00197F1F700C00A
:1002000000000E94530095E19A95F1F700000E94CA
:10021000530085E18A95F1F7000043980E9453004E
:1002200095E19A95F1F7000088E20E94B50088E018
:100230000E94B5000E94C50086E00E94B5008C2F88
:10024000CF910C94B500009741F0E9EFF0E03197C1
:10025000F1F700C000000197F6CF0895DF92EF920A
:10026000FF920F931F93CF93DF937C01D12C062F26
:1002700010E001501109CD2DD0E0C017D10724F4B2
:100280000E9435028D3059F4CE0DDF1D1882DF91AA
:10029000CF911F910F91FF90EF90DF900895CE0DB9
:1002A000DF1D8883D394E7CF0E946402FC01419153
:1002B00021E030E080E090E0AAE050E040535109B6
:1002C000429FB001439F700D529F700D1124860F05
:1002D000971FA901A49F9001A59F300D1124419162
:1002E0004111EBCF08950F931F93CF93DF93C4EF8A
:1002F000D1E09C012C9FC0012D9F900D3C9F900D43
:10030000112466E970E00E9450028B01289ACB010B
:100310000E9423012898CE01801B910BDF91CF9181
:100320001F910F910C9423018A3591051CF42B9A8F
:100330002C9808952B982C9A08950F931F93CF9380
:10034000DF93EC018B010E94C50060E080E00E9419
:10035000BE0080E091E00E94DC0060E08BE00E9443
:10036000BE00CE010E94DC0061E080E00E94BE0081
:100370008DE091E00E94DC0061E08CE00E94BE0014
:10038000C8010E94DC0061E08FE00E94BE008BE1AA
:1003900091E00E94DC002FE38DE093E0215080404B
:1003A0009040E1F700C00000DF91CF911F910F91C5
:1003B0000895CF93DF93CDB7DEB72A970FB6F894A1
:1003C000DEBF0FBECDBF0E9424028CE00E94E80079
:1003D00084B18F6184B915B8289A2A98299A05E5BD
:1003E00010E083E0E82EF12C8091C00087FF25C04B
:1003F0002A9A29988FE493EC0197F1F700C0000046
:1004000065E0CE0106960E942E0165E0CE010196C0
:100410000E942E01BE016F5F7F4FCE0106960E94A3
:100420009D01CE0101960E9454018C01CE010696D9
:100430000E9454017C012A98299AC7010E947301E5
:10044000C8010E949401D0CF1092C5008CE0809327
:10045000C400E0ECF0E080818260808388E18093DA
:10046000C10086E08093C20008958091C00087FF9C
:10047000FCCF8091C6000895AA1BBB1B51E107C0A9
:10048000AA1FBB1FA617B70710F0A61BB70B881F24
:10049000991F5A95A9F780959095BC01CD010895B3
:1004A00097FB072E16F4009407D077FD09D00E9421
:1004B0003C0207FC05D03EF4909581959F4F08952E
:1004C000709561957F4F0895DC01FC01672F719154
:1004D0007723E1F7329704C07C916D93708362912A
:0C04E000AE17BF07C8F30895F894FFCFD3
:1004EC0057696E642073706565643A200054656DBD
:0E04FC0070657261747572653A2000460000EA
:00000001FF
