:100000000C9434000C943E000C943E000C943E0082
:100010000C943E000C943E000C943E000C943E0068
:100020000C943E000C943E000C943E000C943E0058
:100030000C943E000C943E000C943E000C943E0048
:100040000C943E000C943E000C943E000C943E0038
:100050000C943E000C943E000C943E000C943E0028
:100060000C943E000C943E0011241FBECFEFD4E050
:10007000DEBFCDBF0E946C000C94B3000C94000056
:10008000009741F0E9EFF0E03197F1F700C0000090
:100090000197F6CF08950F931F93CF93DF93C4EF8B
:1000A000D1E09C012C9FC0012D9F900D3C9F900D95
:1000B000112466E970E00E949F008B01289ACB0111
:1000C0000E9440002898CE01801B910BDF91CF91B8
:1000D0001F910F910C9440000E947A0084B18760B8
:1000E00084B915B8289A29982A9A82E390E00E9448
:1000F0004B00FBCF1092C5008CE08093C400E0EC75
:10010000F0E080818260808388E18093C10086E096
:100110008093C2000895AA1BBB1B51E107C0AA1F10
:10012000BB1FA617B70710F0A61BB70B881F991F98
:100130005A95A9F780959095BC01CD01089597FB3C
:10014000072E16F4009407D077FD09D00E948B008B
:1001500007FC05D03EF4909581959F4F08957095CA
:0A01600061957F4F0895F894FFCFDA
:00000001FF
